{
    "_format": "hh-sol-artifact-1",
    "contractName": "BuyMeCoffee",
    "sourceName": "contracts/BuyMeCoffee.sol",
    "abi": [
        {
            "anonymous": false,
            "inputs": [
                {
                    "indexed": true,
                    "internalType": "address",
                    "name": "from",
                    "type": "address"
                },
                {
                    "indexed": false,
                    "internalType": "uint256",
                    "name": "timeStamp",
                    "type": "uint256"
                },
                {
                    "indexed": false,
                    "internalType": "string",
                    "name": "name",
                    "type": "string"
                },
                {
                    "indexed": false,
                    "internalType": "string",
                    "name": "message",
                    "type": "string"
                }
            ],
            "name": "newRaise",
            "type": "event"
        },
        {
            "inputs": [
                {
                    "internalType": "string",
                    "name": "_name",
                    "type": "string"
                },
                {
                    "internalType": "string",
                    "name": "_message",
                    "type": "string"
                }
            ],
            "name": "BuyCoffee",
            "outputs": [],
            "stateMutability": "payable",
            "type": "function"
        },
        {
            "inputs": [],
            "name": "showMemo",
            "outputs": [
                {
                    "components": [
                        {
                            "internalType": "address",
                            "name": "from",
                            "type": "address"
                        },
                        {
                            "internalType": "uint256",
                            "name": "timeStamp",
                            "type": "uint256"
                        },
                        {
                            "internalType": "string",
                            "name": "name",
                            "type": "string"
                        },
                        {
                            "internalType": "string",
                            "name": "message",
                            "type": "string"
                        }
                    ],
                    "internalType": "struct BuyMeCoffee.Memo[]",
                    "name": "",
                    "type": "tuple[]"
                }
            ],
            "stateMutability": "view",
            "type": "function"
        },
        {
            "inputs": [],
            "name": "withrawTips",
            "outputs": [],
            "stateMutability": "nonpayable",
            "type": "function"
        }
    ],
    "bytecode": "0x6080604052336000806101000a81548173ffffffffffffffffffffffffffffffffffffffff021916908373ffffffffffffffffffffffffffffffffffffffff16021790555034801561005057600080fd5b50610c6b806100606000396000f3fe6080604052600436106100345760003560e01c80631f8cf24014610039578063a41fd4fb14610064578063bf29eff814610080575b600080fd5b34801561004557600080fd5b5061004e610097565b60405161005b919061066a565b60405180910390f35b61007e600480360381019061007991906107d5565b61027a565b005b34801561008c57600080fd5b506100956103f4565b005b60606001805480602002602001604051908101604052809291908181526020016000905b8282101561027157838290600052602060002090600402016040518060800160405290816000820160009054906101000a900473ffffffffffffffffffffffffffffffffffffffff1673ffffffffffffffffffffffffffffffffffffffff1673ffffffffffffffffffffffffffffffffffffffff1681526020016001820154815260200160028201805461014e9061087c565b80601f016020809104026020016040519081016040528092919081815260200182805461017a9061087c565b80156101c75780601f1061019c576101008083540402835291602001916101c7565b820191906000526020600020905b8154815290600101906020018083116101aa57829003601f168201915b505050505081526020016003820180546101e09061087c565b80601f016020809104026020016040519081016040528092919081815260200182805461020c9061087c565b80156102595780601f1061022e57610100808354040283529160200191610259565b820191906000526020600020905b81548152906001019060200180831161023c57829003601f168201915b505050505081525050815260200190600101906100bb565b50505050905090565b600034116102bd576040517f08c379a00000000000000000000000000000000000000000000000000000000081526004016102b49061090a565b60405180910390fd5b600160405180608001604052803373ffffffffffffffffffffffffffffffffffffffff16815260200142815260200184815260200183815250908060018154018082558091505060019003906000526020600020906004020160009091909190915060008201518160000160006101000a81548173ffffffffffffffffffffffffffffffffffffffff021916908373ffffffffffffffffffffffffffffffffffffffff1602179055506020820151816001015560408201518160020190816103859190610ad6565b50606082015181600301908161039b9190610ad6565b5050503373ffffffffffffffffffffffffffffffffffffffff167f2bbf62dec9529cff3ced1cd9708a46d96be23e8a91d06e887fa82146a408b89b4284846040516103e893929190610bf0565b60405180910390a25050565b60008054906101000a900473ffffffffffffffffffffffffffffffffffffffff1673ffffffffffffffffffffffffffffffffffffffff166108fc479081150290604051600060405180830381858888f1935050505061045257600080fd5b565b600081519050919050565b600082825260208201905092915050565b6000819050602082019050919050565b600073ffffffffffffffffffffffffffffffffffffffff82169050919050565b60006104ab82610480565b9050919050565b6104bb816104a0565b82525050565b6000819050919050565b6104d4816104c1565b82525050565b600081519050919050565b600082825260208201905092915050565b60005b838110156105145780820151818401526020810190506104f9565b60008484015250505050565b6000601f19601f8301169050919050565b600061053c826104da565b61054681856104e5565b93506105568185602086016104f6565b61055f81610520565b840191505092915050565b600060808301600083015161058260008601826104b2565b50602083015161059560208601826104cb565b50604083015184820360408601526105ad8282610531565b915050606083015184820360608601526105c78282610531565b9150508091505092915050565b60006105e0838361056a565b905092915050565b6000602082019050919050565b600061060082610454565b61060a818561045f565b93508360208202850161061c85610470565b8060005b85811015610658578484038952815161063985826105d4565b9450610644836105e8565b925060208a01995050600181019050610620565b50829750879550505050505092915050565b6000602082019050818103600083015261068481846105f5565b905092915050565b6000604051905090565b600080fd5b600080fd5b600080fd5b600080fd5b7f4e487b7100000000000000000000000000000000000000000000000000000000600052604160045260246000fd5b6106e282610520565b810181811067ffffffffffffffff82111715610701576107006106aa565b5b80604052505050565b600061071461068c565b905061072082826106d9565b919050565b600067ffffffffffffffff8211156107405761073f6106aa565b5b61074982610520565b9050602081019050919050565b82818337600083830152505050565b600061077861077384610725565b61070a565b905082815260208101848484011115610794576107936106a5565b5b61079f848285610756565b509392505050565b600082601f8301126107bc576107bb6106a0565b5b81356107cc848260208601610765565b91505092915050565b600080604083850312156107ec576107eb610696565b5b600083013567ffffffffffffffff81111561080a5761080961069b565b5b610816858286016107a7565b925050602083013567ffffffffffffffff8111156108375761083661069b565b5b610843858286016107a7565b9150509250929050565b7f4e487b7100000000000000000000000000000000000000000000000000000000600052602260045260246000fd5b6000600282049050600182168061089457607f821691505b6020821081036108a7576108a661084d565b5b50919050565b600082825260208201905092915050565b7f706c65736520696e7075742076616c696420616d6f756e742100000000000000600082015250565b60006108f46019836108ad565b91506108ff826108be565b602082019050919050565b60006020820190508181036000830152610923816108e7565b9050919050565b60008190508160005260206000209050919050565b60006020601f8301049050919050565b600082821b905092915050565b60006008830261098c7fffffffffffffffffffffffffffffffffffffffffffffffffffffffffffffffff8261094f565b610996868361094f565b95508019841693508086168417925050509392505050565b6000819050919050565b60006109d36109ce6109c9846104c1565b6109ae565b6104c1565b9050919050565b6000819050919050565b6109ed836109b8565b610a016109f9826109da565b84845461095c565b825550505050565b600090565b610a16610a09565b610a218184846109e4565b505050565b5b81811015610a4557610a3a600082610a0e565b600181019050610a27565b5050565b601f821115610a8a57610a5b8161092a565b610a648461093f565b81016020851015610a73578190505b610a87610a7f8561093f565b830182610a26565b50505b505050565b600082821c905092915050565b6000610aad60001984600802610a8f565b1980831691505092915050565b6000610ac68383610a9c565b9150826002028217905092915050565b610adf826104da565b67ffffffffffffffff811115610af857610af76106aa565b5b610b02825461087c565b610b0d828285610a49565b600060209050601f831160018114610b405760008415610b2e578287015190505b610b388582610aba565b865550610ba0565b601f198416610b4e8661092a565b60005b82811015610b7657848901518255600182019150602085019450602081019050610b51565b86831015610b935784890151610b8f601f891682610a9c565b8355505b6001600288020188555050505b505050505050565b610bb1816104c1565b82525050565b6000610bc2826104da565b610bcc81856108ad565b9350610bdc8185602086016104f6565b610be581610520565b840191505092915050565b6000606082019050610c056000830186610ba8565b8181036020830152610c178185610bb7565b90508181036040830152610c2b8184610bb7565b905094935050505056fea2646970667358221220cbde6459e73510e2f152456f8a4ce595eb932069fc3bd60abe9cc6812b7b6e8d64736f6c63430008110033",
    "linkReferences": {},
    "deployedLinkReferences": {}
}